:020000040800F2
:100000000000012095910008DD850008EB850008BF
:10001000F1850008F7850008FD8500080000000054
:10002000000000000000000000000000038600083F
:1000300011860008000000001F8600082D860008B9
:10004000E5910008E5910008E5910008E5910008B8
:10005000E5910008E5910008E5910008E5910008A8
:10006000E5910008E5910008E5910008E591000898
:10007000E5910008E59100083D860008E59100083B
:10008000E5910008E5910008E5910008E591000878
:10009000E5910008E5910008E5910008E591000868
:1000A00051860008E5910008E5910008E5910008F7
:1000B000E59100080000000000000000E591000844
:1000C000E59100080000000000000000E591000834
:1000D0000000000065860008E591000800000000AF
:1000E000E5910008E5910008000000000000000014
:1000F0000000000000000000000000000000000000
:10010000000000000000000000000000E591000871
:100110000000000000000000E5910008E5910008E3
:10012000E5910008E5910008E5910008E5910008D7
:10013000E591000800000000000000000000000041
:10014000E5910008E5910008E5910008798600082E
:10015000E5910008E5910008E5910008E5910008A7
:10016000E5910008E5910008E59100080000000015
:10017000E5910008E5910008000000000000000083
:0C018000E5910008E5910008E5910008F9
:1001900010B5054C237833B9044B13B10448AFF3C1
:1001A00000800123237010BDC80200200000000061
:1001B0006C9A000808B5034B1BB103490348AFF321
:1001C000008008BD00000000CC0200206C9A0008EE
:1001D000034613F8012B002AFBD1181A0138704787
:1001E00001F0FF01102A2BDB10F0070F08D010F8E8
:1001F000013B013A8B422DD010F0070F42B3F6D1EC
:10020000F0B441EA012141EA014122F007047FF004
:1002100000070023F0E80256083C85EA010586EA5B
:10022000010685FA47F5A3FA87F586FA47F6A5FA97
:1002300087F68EB9EED1F0BC01F0FF0102F00702A3
:1002400032B110F8013B013A83EA010313B1F8D14E
:100250000020704701387047002D06BF354603382F
:10026000073815F0010F07D1013015F4807F02BF68
:10027000013015F4C03F0130F0BC0138704700BFB9
:1002800053B94AB9002908BF00281CBF4FF0FF31FD
:100290004FF0FF3000F072B9ADF1080C6DE904CEFB
:1002A00000F006F8DDF804E0DDE9022304B0704751
:1002B0002DE9F047089E04468846002B4BD18A4220
:1002C000154667D9B2FA82F24AB1C2F1200701FAA3
:1002D00002F320FA07F7954047EA030894404FEAF3
:1002E000154E230CB8FBFEF71FFA85FC0EFB178892
:1002F00043EA084307FB0CF1994209D9EB1807F1CF
:10030000FF3080F01B81994240F21881023F2B445C
:100310005B1AA4B2B3FBFEF00EFB103344EA0344B5
:1003200000FB0CFCA44509D92C1900F1FF3380F027
:100330000781A44540F2048102382C4440EA07407A
:10034000A4EB0C0400271EB1D4400023C6E90043EF
:100350003946BDE8F0878B4209D9002E00F0EB80CA
:100360000027C6E9000138463946BDE8F087B3FAF0
:1003700083F7002F47D18B4202D3824200F2FA80EA
:10038000841A61EB030301209846002EE0D0C6E9F1
:100390000048DDE702B9FFDEB2FA82F2002A40F03F
:1003A0008F80491B4FEA154E1FFA85F80127B1FBD4
:1003B000FEFC230C0EFB1C1143EA014308FB0CF16D
:1003C000994207D9EB180CF1FF3002D2994200F2A2
:1003D000CD808446591AA3B2B1FBFEF00EFB101477
:1003E00043EA044408FB00F8A04507D92C1900F1A2
:1003F000FF3302D2A04500F2B6801846A4EB0804F1
:1004000040EA0C409FE7C7F1200CBB4022FA0CFEEB
:100410004EEA030E01FA07F420FA0CF521FA0CF368
:100420004FEA1E482543B3FBF8F92C0C08FB19339F
:100430001FFA8EFA44EA034309FB0AF49C4202FACB
:1004400007F200FA07F10BD91EEB030309F1FF30A5
:1004500080F087809C4240F28480A9F102097344B5
:100460001B1BADB2B3FBF8F008FB103345EA0344A5
:1004700000FB0AFAA24508D91EEB040400F1FF3381
:100480006BD2A24569D90238744440EA0940A0FB06
:100490000289A4EB0A044C45C2464B4654D351D0C2
:1004A000002E69D0B1EB0A0564EB030404FA0CFCDE
:1004B000FD40FC404CEA0505C6E90054002747E72B
:1004C000C2F1200320FA03F7954001FA02F021FA65
:1004D00003F34FEA154E3843010CB3FBFEF71FFA46
:1004E00085F80EFB173341EA034107FB08F38B4203
:1004F00004FA02F407D9691807F1FF3C2FD28B42A6
:100500002DD9023F2944CB1A81B2B3FBFEF00EFB7A
:10051000103341EA034100FB08F38B4207D9691805
:1005200000F1FF3C17D28B4215D902382944C91A71
:1005300040EA07473BE73746304609E70746E7E624
:100540001846FBE64145ABD2B8EB020A69EB0E0256
:1005500001381346A4E76046E9E7184695E7674681
:10056000D1E781467CE702382C4447E7ACF1020C26
:100570002B442FE7384608E73746E9E6704700BFC7
:1005800080B500AF032000F027F9002000F006F846
:1005900007F010FF0023184680BD000080B582B030
:1005A00000AF7860094B1B68094AA2FB03239B0933
:1005B000184600F046F9002279684FF0FF3000F04D
:1005C00016F9002318460837BD4680BD0C020020EE
:1005D000D34D621080B400AF044B1B680133034A53
:1005E000136000BFBD465DF8047B704738090020EA
:1005F00080B400AF034B1B681846BD465DF8047B12
:10060000704700BF3809002080B584B000AF786023
:10061000FFF7EEFFB8607B68FB60FB68B3F1FF3F5C
:1006200002D0FB680133FB6000BFFFF7E1FF024629
:10063000BB68D21AFB689A42F7D300BF1037BD4699
:1006400080BD000080B485B000AF78607B6803F0A7
:100650000703FB600C4BDB68BB60BA684FF6FF0317
:100660001340BB60FB681A02BB68134343F0BF63CF
:1006700043F40033BB60044ABB68D36000BF143747
:10068000BD465DF8047B704700ED00E080B400AF2C
:10069000044BDB681B0A03F007031846BD465DF8F0
:1006A000047B704700ED00E080B483B000AF0346E8
:1006B000FB71094997F907305B09FA7902F01F02CB
:1006C000012000FA02F241F8232000BF0C37BD469A
:1006D0005DF8047B704700BF00E100E080B483B0A8
:1006E00000AF03463960FB7197F90730002B0BDA36
:1006F0000D49FB7903F00F03043B3A68D2B21201B3
:10070000D2B20B441A7609E0084997F907303A68E3
:10071000D2B21201D2B20B4483F8002300BF0C37CF
:10072000BD465DF8047B704700ED00E000E100E0AD
:1007300080B489B000AFF860B9607A60FB6803F0FC
:100740000703FB61FB69C3F10703042B28BF0423E4
:10075000BB61FB690433062B02D9FB69033B00E054
:1007600000237B610122BB6902FA03F35A1EBB68B6
:100770001A407B699A4001217B6901FA03F3591EF3
:100780007B680B40134318462437BD465DF8047B55
:100790007047000080B582B000AF78607B68013B95
:1007A000B3F1807F01D301230FE00A4A7B68013B4C
:1007B00053600F214FF0FF30FFF790FF054B0022F1
:1007C0009A60044B07221A60002318460837BD467A
:1007D00080BD00BF10E000E080B582B000AF78605F
:1007E0007868FFF72FFF00BF0837BD4680BD80B592
:1007F00086B000AF0346B9607A60FB7300237B616B
:10080000FFF744FF78617A68B9687869FFF790FF6D
:10081000024697F90F3011461846FFF75FFF00BFF9
:100820001837BD4680BD80B582B000AF0346FB716E
:1008300097F907301846FFF737FF00BF0837BD4666
:1008400080BD80B582B000AF78607868FFF7A2FF06
:10085000034618460837BD4680BD000080B483B00B
:1008600000AF78607B68042B06D1094A084B1B68EF
:1008700043F00403136005E0054A054B1B6823F0B1
:100880000403136000BF0C37BD465DF8047B70475E
:1008900010E000E080B500AF00F002F800BF80BDBE
:1008A00080B400AF00BFBD465DF8047B7047000018
:1008B00080B485B000AF78600023FB607B68002BBC
:1008C00001D101239CE07B681B681A464F4B9A427A
:1008D0000FD87B681B681A464D4B13444D4AA2FB48
:1008E00003231B099A007B685A647B684A4A1A648E
:1008F0000EE07B681B681A46484B1344454AA2FB2E
:1009000003231B099A007B685A647B68444A1A6473
:100910007B68022283F825207B681B681B68FB60CC
:10092000FB6823F4FF4323F07003FB607B689A6845
:100930007B68DB681A437B681B691A437B685B69C9
:100940001A437B689B691A437B68DB691A437B689F
:100950001B6A1343FA681343FB607B681B68FA68E1
:100960001A607B689B68B3F5804F31D07B681B6C45
:10097000294A934216D12B492A4B1A687B685B6C33
:100980000F2000FA03F3DB4313400B602548254B8F
:100990001A687B6859687B685B6C01FA03F3134340
:1009A000036015E02049204B1A687B685B6C0F20C0
:1009B00000FA03F3DB4313400B601B481A4B1A6821
:1009C0007B6859687B685B6C01FA03F3134303602F
:1009D0007B680022DA627B6800221A637B6800224F
:1009E0005A637B6800229A637B680022DA637B6823
:1009F000012283F825207B68002283F8242000232D
:100A000018461437BD465DF8047B70470704024062
:100A1000F8FFFDBFCDCCCCCC00000240F8FBFDBF01
:100A200000040240A8000240A804024080B586B03D
:100A300000AFF860B9607A603B600023FB75FB682B
:100A400093F82430012B01D102234BE0FB680122F3
:100A500083F82420FB6893F82530DBB2012B3AD1D0
:100A6000FB68022283F82520FB680022DA63FB681A
:100A70001B68FA681268126822F001021A603B686B
:100A80007A68B968F86800F013F9FB681B6B002BF3
:100A900008D0FB681B68FA681268126842F00E0200
:100AA0001A600FE0FB681B68FA681268126822F08F
:100AB00004021A60FB681B68FA681268126842F048
:100AC0000A021A60FB681B68FA681268126842F032
:100AD00001021A6005E0FB68002283F8242002234B
:100AE000FB75FB7D18461837BD4680BD80B584B0C8
:100AF00000AF78600023FB737B6893F82530DBB28E
:100B0000022B05D07B680422DA630123FB7327E004
:100B10007B681B687A681268126822F00E021A60FD
:100B20007B681B687A681268126822F001021A60FA
:100B30007B681B6C7A68526C012101FA02F25A60E0
:100B40007B68012283F825207B68002283F824201B
:100B50007B689B6B002B03D07B689B6B7868984706
:100B6000FB7B18461037BD4680BD80B584B000AF12
:100B700078607B681B6C1B68FB607B681B681B686C
:100B8000BB607B685B6C04229A40FB681340002BBF
:100B900024D0BB6803F00403002B1FD07B681B68C4
:100BA0001B6803F02003002B07D17B681B687A6861
:100BB0001268126822F004021A607B681B6C7A6863
:100BC000526C042101FA02F25A607B681B6B002B05
:100BD00069D07B681B6B7868984764E07B685B6CC6
:100BE00002229A40FB681340002B2CD0BB6803F014
:100BF0000203002B27D07B681B681B6803F02003CF
:100C0000002B0BD17B681B687A681268126822F08F
:100C10000A021A607B68012283F825207B681B6C1E
:100C20007A68526C022101FA02F25A607B68002253
:100C300083F824207B68DB6A002B34D07B68DB6A76
:100C4000786898472FE07B685B6C08229A40FB68C5
:100C50001340002B28D0BB6803F00803002B23D0DF
:100C60007B681B687A681268126822F00E021A60AC
:100C70007B681B6C7A68526C012101FA02F25A609F
:100C80007B680122DA637B68012283F825207B6878
:100C9000002283F824207B685B6B002B04D07B68E8
:100CA0005B6B7868984700BF00BF1037BD4680BDBA
:100CB00080B485B000AFF860B9607A603B60FB68D3
:100CC0001B6CFA68526C012101FA02F25A60FB684F
:100CD0001B683A685A60FB689B68102B08D1FB6858
:100CE0001B687A689A60FB681B68BA68DA6007E07C
:100CF000FB681B68BA689A60FB681B687A68DA60F0
:100D000000BF1437BD465DF8047B704780B487B0E0
:100D100000AF7860396000237B610023FB60002313
:100D20003B6148E13B681A6801217B6901FA03F3E2
:100D30001340FB60FB68002B00F03A813B685B6866
:100D4000022B03D03B685B68122B23D17B69DA0846
:100D50007B68083253F822303B617B6903F007035C
:100D60009B000F2202FA03F3DB433A6913403B6115
:100D70003B681A697B6903F007039B0002FA03F3DF
:100D80003A6913433B617B69DA087B680832396949
:100D900043F822107B681B683B617B695B00032280
:100DA00002FA03F3DB433A6913403B613B685B683B
:100DB00003F003027B695B0002FA03F33A69134311
:100DC0003B617B683A691A603B685B68012B0BD01A
:100DD0003B685B68022B07D03B685B68112B03D034
:100DE0003B685B68122B30D17B689B683B617B69F9
:100DF0005B00032202FA03F3DB433A6913403B61D1
:100E00003B68DA687B695B0002FA03F33A691343D3
:100E10003B617B683A699A607B685B683B61012251
:100E20007B6902FA03F3DB433A6913403B613B6899
:100E30005B681B0903F001027B6902FA03F33A695C
:100E400013433B617B683A695A607B68DB683B61AE
:100E50007B695B00032202FA03F3DB433A69134028
:100E60003B613B689A687B695B0002FA03F33A696D
:100E700013433B617B683A69DA603B685B6803F067
:100E80008053002B00F09480524A524B1B6E43F06B
:100E9000010313664F4B1B6E03F00103BB60BB687D
:100EA0004D4A7B699B08023352F823303B617B69D2
:100EB00003F003039B000F2202FA03F3DB433A69BA
:100EC00013403B617B68B3F1904F0DD07B68434A80
:100ED000934207D07B68424A934201D1022304E047
:100EE000072302E0012300E000237A6902F00302F5
:100EF000920093403A6913433B6137497B699B08F1
:100F000002333A6941F82320364B1B683B61FB688A
:100F1000DB433A6913403B613B685B6803F4803311
:100F2000002B03D03A69FB6813433B612D4A3B69B0
:100F300013602C4B5B683B61FB68DB433A691340F1
:100F40003B613B685B6803F40033002B03D03A69D4
:100F5000FB6813433B61234A3B695360214B9B6809
:100F60003B61FB68DB433A6913403B613B685B686C
:100F700003F48013002B03D03A69FB6813433B61F1
:100F8000184A3B699360174BDB683B61FB68DB43A6
:100F90003A6913403B613B685B6803F40013002B24
:100FA00003D03A69FB6813433B610E4A3B69D36047
:100FB0007B6901337B613B681A687B6922FA03F322
:100FC000002B7FF4AFAE00BF1C37BD465DF8047B3D
:100FD000704700BF001002400000014000040048BC
:100FE000000800480004014080B485B000AF78607C
:100FF0000B467B807B681A697B881340002B02D0EC
:101000000123FB7301E00023FB73FB7B18461437BD
:10101000BD465DF8047B704780B483B000AF786054
:101020000B467B8013467B707B78002B03D07A883D
:101030007B689A6102E07A887B689A6200BF0C370D
:10104000BD465DF8047B7047F0B58BB006AF7860A5
:101050000023FB607B68002B01D10123E0E07B686B
:1010600093F8ED33DBB2002B06D17B68002283F8C6
:10107000EC23786807F024FC7B68032283F8ED23D7
:101080007B681B68184603F0A3FE7B681B683B6007
:101090007E686D4606F110040FCC0FC594E803007E
:1010A00085E80300331D0ECB386803F065FE7B68CE
:1010B0001B680021184603F0A8FE0023FB6038E0FF
:1010C0007A68FB685B0113442D3301221A70FB68B8
:1010D000D9B27A68FB685B0113442C330A461A7054
:1010E000FB6899B27A68FB685B01134438330A469F
:1010F0001A807A68FB685B0113442F3300221A7050
:101100007A68FB685B0113443C3300221A607A68FA
:10111000FB685B011344403300221A607A68FB6865
:1011200002335B011344043300221A60FB6801336D
:10113000FB607B685A68FB689A42C1D80023FB6059
:101140003DE07A68FB685B01134403F20D23002243
:101150001A70FB68D9B27A68FB685B01134403F527
:1011600003730A461A70FB6899B27A68FB685B01E0
:10117000134438330A461A807A68FB685B011344CB
:1011800003F20F2300221A707A68FB685B01134494
:1011900003F5077300221A607A68FB685B01134449
:1011A00003F5087300221A607A68FB6811335B014B
:1011B0001344043300221A60FB680133FB60FB68B0
:1011C0000E2BBED97B681B683B607E686D4606F1BE
:1011D00010040FCC0FC594E8030085E80300331D0D
:1011E0000ECB386803F01EFE7B68002283F82820AF
:1011F0007B68012283F8ED237B681B6A012B02D1F7
:10120000786800F032FF7B685B6A012B02D1786856
:1012100000F005FF7B681B68184604F0DBFD002327
:1012200018461437BD46F0BD80B582B000AF786077
:101230007B6893F8EC33012B01D1022312E07B6829
:10124000012283F8EC237B681B68184604F0A8FD94
:101250007B681B68184603F0A0FD7B68002283F8BA
:10126000EC23002318460837BD4680BD80B584B006
:1012700000AF78600023FB607B681B68184604F0B1
:10128000C1FD034603F40043B3F5004F02D1786873
:1012900000F06CFB7B681B68184604F0B3FD034646
:1012A00003F48063B3F5806F12D17B681B687A68A2
:1012B0001268B2F8442092B222F4806292B2A3F88B
:1012C0004420786807F071FB0021786800F04DF940
:1012D0007B681B68184604F095FD034603F48043C1
:1012E000B3F5804F0BD17B681B687A681268B2F83F
:1012F000442092B222F4804292B2A3F844207B6848
:101300001B68184604F07EFD034603F40053B3F552
:10131000005F0BD17B681B687A681268B2F84420C2
:1013200092B222F4005292B2A3F844207B681B6868
:10133000184604F067FD034603F48053B3F5805F5D
:1013400057D17B681B687A681268B2F8402092B265
:1013500022F0040292B2A3F840204FF43F43FB6016
:101360007B681B68FA6892B2A3F840207B681B6A0E
:10137000012B22D1FB6843F08003FB607B681B6874
:10138000BB607B680122C3F828247B68002283F8B5
:101390002024BB68B3F854309BB243F001039AB2E7
:1013A000BB68A3F85420BB68B3F854309BB243F039
:1013B00002039AB2BB68A3F854207B6893F82034E8
:1013C000012B07D17B68002283F820240021786854
:1013D00007F0AAFD786807F025FB7B681B687A6830
:1013E0001268B2F8442092B222F4805292B2A3F86A
:1013F00044207B681B68184604F004FD034603F490
:101400000063B3F5006F31D17B681B687A6812689E
:10141000B2F8442092B222F4006292B2A3F84420BF
:101420007B681B687A681268B2F8402092B242F07A
:10143000080292B2A3F840207B681B687A681268A1
:10144000B2F8402092B242F0040292B2A3F84020D7
:101450007B681B68184604F0D5FC034603F48053F0
:10146000B3F5805F02D0786807F0C2FA7B681B682A
:10147000184604F0C7FC034603F08003802B3FD1DD
:101480007B681B687A681268B2F8442092B222F036
:10149000800292B2A3F844207B6893F82034002B9A
:1014A0002BD17B681B687A681268B2F8402092B230
:1014B00042F0040292B2A3F840207B681B687A686D
:1014C0001268B2F8402092B242F0080292B2A3F839
:1014D00040207B68012283F820247B681B68B3F8D6
:1014E00054309BB29B1003F03C027B68C3F8242469
:1014F0000121786807F018FD02E0786807F078FAB3
:101500007B681B68184604F07DFC034603F40073F7
:10151000B3F5007F0ED17B681B687A681268B2F859
:10152000442092B222F4007292B2A3F84420786868
:1015300007F02DFA7B681B68184604F063FC03462D
:1015400003F48073B3F5807F0BD17B681B687A68E6
:101550001268B2F8442092B222F4807292B2A3F8D8
:10156000442000BF1037BD4680BD80B582B000AFBB
:1015700078600B46FB707B6893F8EC33012B01D14C
:10158000022313E07B68012283F8EC237B68FA785E
:1015900083F828207B681B68FA781146184604F007
:1015A000EBFB7B68002283F8EC2300231846083706
:1015B000BD4680BD80B584B000AF78600846114656
:1015C0001A460346FB700B463B801346BB70002354
:1015D000FB720023FB6097F90330002B09DAFB78DC
:1015E00003F07F035B0128337A6813440433FB6004
:1015F00009E0FB7803F07F035B0103F502737A686F
:1016000013440433FB60FB7803F07F03DAB2FB681A
:101610001A7097F90330DBB2DB09DBB21A46FB68BC
:101620005A703A88FB681A61FB68BA78DA707B688E
:1016300093F8EC33012B01D102230EE07B680122E9
:1016400083F8EC237B681B68F968184603F00CFCF0
:101650007B68002283F8EC23FB7A18461037BD46DE
:1016600080BD80B584B000AF78600B46FB7000236E
:10167000FB6097F90330002B09DAFB7803F07F0356
:101680005B0128337A6813440433FB6009E0FB787C
:1016900003F07F035B0103F502737A68134404339C
:1016A000FB60FB7803F07F03DAB2FB681A7097F9EE
:1016B0000330DBB2DB09DBB21A46FB685A707B6889
:1016C00093F8EC33012B01D102230EE07B68012259
:1016D00083F8EC237B681B68F968184603F0A6FEC4
:1016E0007B68002283F8EC23002318461037BD46A0
:1016F00080BD80B586B000AFF8607A603B600B4675
:10170000FB7200237B61FB7A03F07F035B0103F52F
:101710000273FA68134404337B617B697A685A6107
:101720007B693A689A617B690022DA617B690022F1
:101730005A70FB7A03F07F03DAB27B691A70FB7A86
:1017400003F07F03002B09D1FB681868FB68DB6896
:10175000DBB21A46796904F001F808E0FB68186802
:10176000FB68DB68DBB21A46796903F0F7FF0023F8
:1017700018461837BD4680BD80B483B000AF78608E
:101780000B46FB70FB7803F07F037A6811335B0133
:10179000134408331B689BB218460C37BD465DF8EE
:1017A000047B704780B586B000AFF8607A603B601C
:1017B0000B46FB7200237B61FB7A03F07F035B0126
:1017C0002833FA68134404337B617B697A685A6171
:1017D0007B693A689A617B690022DA617B69012240
:1017E0005A70FB7A03F07F03DAB27B691A70FB7AD6
:1017F00003F07F03002B09D1FB681868FB68DB68E6
:10180000DBB21A46796903F0A9FF08E0FB681868A3
:10181000FB68DB68DBB21A46796903F09FFF00239F
:1018200018461837BD4680BD80B584B000AF7860DB
:101830000B46FB700023FB6097F90330002B09DA9D
:10184000FB7803F07F035B0128337A681344043389
:10185000FB6007E0FB785B0103F502737A681344D1
:101860000433FB60FB6801229A70FB7803F07F036E
:10187000DAB2FB681A7097F90330DBB2DB09DBB22E
:101880001A46FB685A707B6893F8EC33012B01D140
:1018900002231EE07B68012283F8EC237B681B682F
:1018A000F968184604F07AF9FB7803F07F03002BFF
:1018B0000AD17B6818687B68DB68D9B27B6803F55E
:1018C0007C731A4604F0B0FA7B68002283F8EC239C
:1018D000002318461037BD4680BD80B584B000AFE8
:1018E00078600B46FB700023FB6097F90330002BF8
:1018F00009DAFB7803F07F035B0128337A6813442D
:101900000433FB6007E0FB785B0103F502737A6840
:1019100013440433FB60FB6800229A70FB7803F0E9
:101920007F03DAB2FB681A7097F90330DBB2DB0988
:10193000DBB21A46FB685A707B6893F8EC33012BD4
:1019400001D102230EE07B68012283F8EC237B683F
:101950001B68F968184604F081F97B68002283F857
:10196000EC23002318461037BD4680BD90B589B0E2
:1019700000AF78600023BB610023FB830023FB756D
:101980000023FB810023BB81F6E2FB899BB2DBB223
:1019900003F00F03FB75FB7D002B40F02181FB89D9
:1019A0009BB203F01003002B4BD17B681A687B6855
:1019B0001B681B889BB223F4E14323F070039BB2A6
:1019C00013807B682C33BB617B681B68B3F8503095
:1019D0009BB21A46BB691B78DB0013441A467B682E
:1019E0001B68134403F202431B88C3F30902BB695B
:1019F000DA61BB695A69BB69DB691A44BB695A6120
:101A00000021786806F0ACFF7B6893F82830DBB2E1
:101A1000002B00F0B182BB699B69002B40F0AC82C7
:101A20007B681B687A6892F82820D2B262F07F0245
:101A3000D2B292B2A3F84C207B68002283F828200F
:101A40009AE27B6803F50373BB617B681B681B88A4
:101A50009BB2BB81BB899BB203F40063002B2FD0E8
:101A60007B681B68B3F850309BB21A46BB691B7881
:101A7000DB0013441A467B681B68134403F20643D9
:101A80001B88C3F30902BB69DA617B6818687B684D
:101A900003F57C71BB699A88BB69DB699BB204F072
:101AA0000CFA7B681A687B681B681B8899B240F641
:101AB0008F730B409BB21380786806F027FF5BE2C0
:101AC000BB899BB21BB2002B80F256827B681A68DE
:101AD0007B681B681B8899B240F68F730B409BB2E2
:101AE00013807B681B68B3F850309BB21A46BB6901
:101AF0001B78DB0013441A467B681B68134403F20F
:101B000006431B88C3F30902BB69DA61BB69DB6961
:101B1000002B11D07B681868BB695969BB699A882A
:101B2000BB69DB699BB204F0C8F9BB695A69BB6940
:101B3000DB691A44BB695A610021786806F0F8FE37
:101B40007B681B68B3F850309BB21A467B681B68F1
:101B5000134403F206433B61BB691B693E2B17D953
:101B6000BB691B695B09BB83BB691B6903F01F036E
:101B7000002B02D1BB8B013BBB83BB8B9B029BB277
:101B80006FEA43436FEA53439AB23B691A8011E00C
:101B9000BB691B695B08BB83BB691B6903F001035D
:101BA000002B02D0BB8B0133BB83BB8B9B029AB251
:101BB0003B691A807B681B681B889BB223F48043B7
:101BC00023F070039CB284F480539CB284F40053DD
:101BD0009CB27B681A68964B23439BB21380CBE17F
:101BE0007B681B681A46FB7D9B0013441B889BB2D5
:101BF000BB81BB899BB21BB2002B80F2CD807B687E
:101C00001B681A46FB7D9B001A447B681B681946BB
:101C1000FB7D9B000B441B8899B240F68F730B40F1
:101C20009BB21380FB7D5B0103F502737A6813445A
:101C30000433BB61BB699B7A002B20D17B681B6896
:101C4000B3F850309BB21A46BB691B78DB001344D3
:101C50001A467B681B68134403F206431B88C3F3D0
:101C60000903FB83FB8B002B71D07B681868BB6971
:101C70005969BB699A88FB8B04F01FF967E07B68A0
:101C80001B681A46BB691B789B0013441B889BB2D8
:101C900003F48043002B20D07B681B68B3F85030DE
:101CA0009BB21A46BB691B78DB0013441A467B685B
:101CB0001B68134403F202431B88C3F30903FB832D
:101CC000FB8B002B29D07B681868BB695969BB69FD
:101CD000DA88FB8B04F0F1F81FE07B681B68B3F82F
:101CE00050309BB21A46BB691B78DB0013441A467E
:101CF0007B681B68134403F206431B88C3F3090384
:101D0000FB83FB8B002B08D07B681868BB69596983
:101D1000BB691A89FB8B04F0D0F87B681B681A46F4
:101D2000BB691B789B001A447B681B681946BB691A
:101D30001B789B000B441B889BB219B240F60F73B3
:101D40000B4019B23B4B0B431BB29BB21380BB69D8
:101D5000DA69FB8B1A44BB69DA61BB695A69FB8B90
:101D60001A44BB695A61BB699B69002B04D0FA8B8A
:101D7000BB691B699A4206D2BB691B781946786811
:101D800006F0D6FD08E0BB691978BB695A69BB69E2
:101D90009B697868FFF7ADFCBB899BB203F08003B9
:101DA000002B00F0E980FB7D5B0128337A68134447
:101DB0000433BB617B681B681A46FB7D9B001A4499
:101DC0007B681B681946FB7D9B000B441B889BB2FC
:101DD00023F4E14323F070039BB21380BB699B7A29
:101DE000002B29D17B681B68B3F850309BB21A4690
:101DF000BB691B78DB0013441A467B681B681344DD
:101E000003F202431B88C3F30902BB69DA61BB69B1
:101E1000DB69002B00F080807B681868BB6959691A
:101E2000BB699A88BB69DB699BB204F00BF873E06D
:101E30008080FFFFC080FFFF7B681B681A46BB697C
:101E40001B789B0013441B889BB203F04003002BBC
:101E500024D07B681B68B3F850309BB21A46BB692C
:101E60001B78DB0013441A467B681B68134403F29B
:101E700002431B88C3F30902BB69DA61BB69DB69F2
:101E8000002B2FD07B681868BB695969BB69DA8859
:101E9000BB69DB699BB203F0D5FF23E07B681B685D
:101EA000B3F850309BB21A46BB691B78DB00134471
:101EB0001A467B681B68134403F206431B88C3F36E
:101EC0000902BB69DA61BB69DB69002B0AD07B6858
:101ED0001868BB695969BB691A89BB69DB699BB220
:101EE00003F0B0FF7B681B681A46BB691B789B0038
:101EF0001A447B681B681946BB691B789B000B441E
:101F00001B889BB219B240F60F730B4019B2224BDB
:101F10000B431BB29BB213807B681B68B3F8503035
:101F20009BB21A46BB691B78DB0013441A467B68D8
:101F30001B68134403F202431B88C3F30902BB6905
:101F4000DA61BB695A69BB69DB691A44BB695A61CA
:101F5000BB699B69002B06D1BB691B781946786861
:101F600006F0FEFC08E0BB691978BB695A69BB69D9
:101F70009B697868FFF716FC7B681B68B3F84430F0
:101F80009BB21A46FA811BB2002BFFF6FEAC00236F
:101F900018462437BD4690BD80C0FFFF80B487B08F
:101FA00000AFF8607B600B467B8113463B810023CA
:101FB0007B617B8903F080039BB2002B09D07B8976
:101FC00003F07F035B012833FA68134404337B6119
:101FD00007E07B895B0103F50273FA68134404335D
:101FE0007B613B89002B07D17B6900229A727B6859
:101FF0009AB27B699A800BE07B6901229A727B68B6
:102000009AB27B69DA807B681B0C9AB27B691A8171
:10201000002318461C37BD465DF8047B704780B42A
:1020200085B000AF78607B681B68FB607B6801222D
:10203000C3F82C24FB68B3F858309BB243F001037B
:102040009AB2FB68A3F85820FB68B3F858309BB2EB
:1020500043F002039AB2FB68A3F858200023184605
:102060001437BD465DF8047B704780B485B000AF7F
:1020700078607B681B68FB607B680122C3F82824BA
:102080007B68002283F82024FB68B3F854309BB2AD
:1020900043F001039AB2FB68A3F85420FB68B3F83D
:1020A00054309BB243F002039AB2FB68A3F8542069
:1020B000002318461437BD465DF8047B70470000C6
:1020C00080B400AF044B1B6803F4C0631846BD46E0
:1020D0005DF8047B704700BF0070004080B485B09D
:1020E00000AF78600023FB607B68B3F5007F2FD1E1
:1020F000224B1B6803F4C063B3F5007F37D01F4A3F
:102100001E4B1B6823F4C06343F4007313601C4B25
:102110001B681C4AA2FB03239B0C322202FB03F325
:10212000FB6002E0FB68013BFB60FB68002B06D014
:10213000124B5B6903F48063B3F5806FF2D00F4BF1
:102140005B6903F48063B3F5806F10D103230FE064
:102150000A4B1B6803F4C063B3F5806F07D0074ACE
:10216000064B1B6823F4C06343F4806313600023B1
:1021700018461437BD465DF8047B70470070004078
:102180000C02002083DE1B4380B400AF054A054BE0
:102190005B6843F48063536000BFBD465DF8047B19
:1021A000704700BF0070004080B586B000AF786017
:1021B00000233B617B681B6803F01003002B00F0D9
:1021C000D080A14B9B6803F00C03002B79D19E4B70
:1021D0001B6803F00203002B05D07B689B69002B72
:1021E00001D1012378E37B681A6A974B1B6803F0DF
:1021F0000803002B04D0944B1B6803F0F00305E0A8
:10220000914BD3F894301B0903F0F0039A4223D981
:102210007B681B6A184600F061FD0346002B01D065
:10222000012359E3884A884B1B6843F00803136075
:102230008549854B1B6823F0F0027B681B6A1343BA
:102240000B608149804B5B6823F47F427B68DB69CC
:102250001B0213434B6022E07B4A7B4B1B6843F01D
:10226000080313607849784B1B6823F0F0027B6801
:102270001B6A13430B607449734B5B6823F47F4202
:102280007B68DB691B0213434B607B681B6A184643
:1022900000F024FD0346002B01D001231CE300F0D5
:1022A00039FC0146684B9B681B0903F00F03674A22
:1022B000D35C21FA03F3664A13600020FEF76EF93F
:1022C0004FE07B689B69002B32D05F4A5E4B1B68F6
:1022D00043F001031360FEF78BF9386108E0FEF765
:1022E00087F902463B69D31A022B01D90323F3E293
:1022F000554B1B6803F00203002BF0D0524A524B9F
:102300001B6843F0080313604F494F4B1B6823F0D1
:10231000F0027B681B6A13430B604B494A4B5B68B6
:1023200023F47F427B68DB691B0213434B6018E098
:10233000454A454B1B6823F001031360FEF758F92B
:10234000386108E0FEF754F902463B69D31A022BC4
:1023500001D90323C0E23C4B1B6803F00203002BAE
:10236000F0D17B681B6803F00103002B7AD0364B59
:102370009B6803F00C03082B0BD0334B9B6803F0D6
:102380000C030C2B11D1304BDB6803F00303032B40
:102390000BD12D4B1B6803F40033002B61D07B68FD
:1023A0005B68002B5DD1012396E27B685B68B3F527
:1023B000803F06D1244A244B1B6843F480331360CA
:1023C0001DE07B685B68B3F5A02F0CD11E4A1E4B45
:1023D0001B6843F4802313601B4A1B4B1B6843F4A8
:1023E000803313600BE0184A174B1B6823F48033CB
:1023F0001360154A144B1B6823F4802313607B6819
:102400005B68002B13D0FEF7F3F8386108E0FEF7A5
:10241000EFF802463B69D31A642B01D903235BE230
:10242000094B1B6803F40033002BF0D01AE0FEF7D1
:10243000DFF838610EE0FEF7DBF802463B69D31A9D
:10244000642B07D9032347E200100240009D0008D7
:102450000C020020A94B1B6803F40033002BEAD1C7
:1024600000E000BF7B681B6803F00203002B69D00B
:10247000A24B9B6803F00C03042B0BD09F4B9B6873
:1024800003F00C030C2B1CD19C4BDB6803F0030303
:10249000022B16D1994B1B6803F48063002B05D0E7
:1024A0007B68DB68002B01D1012315E29349934B34
:1024B0005B6823F0F8527B681B691B0613434B6073
:1024C00040E07B68DB68002B23D08C4A8B4B1B6879
:1024D00043F480731360FEF78BF8386108E0FEF771
:1024E00087F802463B69D31A022B01D90323F3E193
:1024F000824B1B6803F48063002BF0D07F497F4B35
:102500005B6823F0F8527B681B691B0613434B6022
:1025100018E07A4A794B1B6823F480731360FEF746
:1025200067F8386108E0FEF763F802463B69D31AA2
:10253000022B01D90323CFE1704B1B6803F48063A6
:10254000002BF0D17B681B6803F00803002B3CD004
:102550007B685B69002B1CD0684A684BD3F89430C9
:1025600043F00103C2F89430FEF742F8386108E006
:10257000FEF73EF802463B69D31A022B01D903232A
:10258000AAE15E4BD3F8943003F00203002BEFD0A6
:102590001BE05A4A594BD3F8943023F00103C2F898
:1025A0009430FEF725F8386108E0FEF721F802467E
:1025B0003B69D31A022B01D903238DE14F4BD3F88A
:1025C000943003F00203002BEFD17B681B6803F00B
:1025D0000403002B00F0A6800023FB75474B9B6D86
:1025E00003F08053002B0DD1444A444B9B6D43F0C4
:1025F00080539365414B9B6D03F08053FB60FB68F8
:102600000123FB753E4B1B6803F48073002B18D12C
:102610003B4A3B4B1B6843F480731360FDF7E8FFB4
:10262000386108E0FDF7E4FF02463B69D31A022B4C
:1026300001D9032350E1324B1B6803F48073002B54
:10264000F0D07B689B68012B08D12C4A2B4BD3F828
:10265000903043F00103C2F8903024E07B689B681F
:10266000052B10D1254A254BD3F8903043F00403B5
:10267000C2F89030214A214BD3F8903043F0010347
:10268000C2F890300FE01D4A1C4BD3F8903023F075
:102690000103C2F89030194A184BD3F8903023F058
:1026A0000403C2F890307B689B68002B16D0FDF7BE
:1026B0009FFF38610AE0FDF79BFF02463B69D31A92
:1026C00041F28832934201D9032305E10B4BD3F841
:1026D000903003F00203002BEDD01AE0FDF788FFE5
:1026E00038610FE0FDF784FF02463B69D31A41F2DF
:1026F0008832934206D90323EEE000BF0010024067
:1027000000700040764BD3F8903003F00203002BAA
:10271000E8D1FB7D012B05D1714A714B9B6D23F0F4
:10272000805393657B681B6803F02003002B3CD02B
:102730007B685B6A002B1CD0694A694BD3F89830E0
:1027400043F00103C2F89830FDF752FF386108E00A
:10275000FDF74EFF02463B69D31A022B01D9032332
:10276000BAE05F4BD3F8983003F00203002BEFD0B0
:102770001BE05B4A5A4BD3F8983023F00103C2F8B0
:102780009830FDF735FF386108E0FDF731FF02466C
:102790003B69D31A022B01D903239DE0504BD3F898
:1027A000983003F00203002BEFD17B689B6A002B6B
:1027B00000F091804A4B9B6803F00C030C2B00F057
:1027C00088807B689B6A022B55D1454A444B1B6825
:1027D00023F080731360FDF70BFF386108E0FDF70D
:1027E00007FF02463B69D31A022B01D9032373E08A
:1027F0003B4B1B6803F00073002BF0D138497B681A
:102800001B6B013B1A017B685B6B1B021A437B68E5
:10281000DB6A1A437B68DB6B5B08013B5B051A4391
:102820007B681B6C5B08013B5B061A437B689B6BF8
:10283000DB061343CB602A4A294B1B6843F08073A5
:102840001360274A264BDB6843F08073D360FDF7A3
:10285000CFFE386108E0FDF7CBFE02463B69D31A94
:10286000022B01D9032337E01D4B1B6803F00073D3
:10287000002BF0D02FE01A4A194B1B6823F080730D
:102880001360174B1B6803F00063002B05D1144A3B
:10289000134BDB6823F00303D360114A104BDB6852
:1028A00023F0887323F48033D360FDF7A1FE3861F1
:1028B00008E0FDF79DFE02463B69D31A022B01D9C1
:1028C000032309E0064B1B6803F00073002BF0D1D3
:1028D00001E0012300E0002318461837BD4680BD03
:1028E0000010024080B584B000AF786039600023EA
:1028F000FB60844B1B6803F007023B689A4210D2CE
:102900008049804B1B6823F007023B6813430B6030
:102910007C4B1B6803F007023B689A4201D00123FD
:10292000ECE07B681B6803F00103002B00F08E8055
:102930007B685B68032B07D1734B1B6803F0007344
:10294000002B21D10123D9E07B685B68022B07D1E2
:102950006D4B1B6803F40033002B15D10123CDE030
:102960007B685B68002B07D1674B1B6803F0020391
:10297000002B09D10123C1E0634B1B6803F4806382
:10298000002B01D10123B9E05F495F4B9B6823F025
:1029900003027B685B6813438B60FDF729FEF860D8
:1029A0007B685B68032B12D10AE0FDF721FE02462B
:1029B000FB68D31A41F28832934201D903239DE088
:1029C000514B9B6803F00C030C2BEED13EE07B686F
:1029D0005B68022B12D10AE0FDF70AFE0246FB6893
:1029E000D31A41F28832934201D9032386E0464B41
:1029F0009B6803F00C03082BEED127E07B685B6833
:102A0000002B1DD10AE0FDF7F3FD0246FB68D31A47
:102A100041F28832934201D903236FE03A4B9B681D
:102A200003F00C03002BEED110E0FDF7E1FD0246B0
:102A3000FB68D31A41F28832934201D903235DE047
:102A4000314B9B6803F00C03042BEED17B681B68B1
:102A500003F00203002B08D02B492B4B9B6823F07B
:102A6000F0027B689B6813438B60264B1B6803F066
:102A700007023B689A4210D92249224B1B6823F077
:102A800007023B6813430B601E4B1B6803F00702F1
:102A90003B689A4201D0012330E07B681B6803F059
:102AA0000403002B08D01849174B9B6823F4E062FD
:102AB0007B68DB6813438B607B681B6803F008034B
:102AC000002B09D01049104B9B6823F460527B689F
:102AD0001B69DB0013438B6000F01CF801460A4BB6
:102AE0009B681B0903F00F03084AD35C21FA03F328
:102AF000074A13600020FDF751FD002318461037E8
:102B0000BD4680BD0020024000100240009D00082C
:102B10000C02002080B487B000AF00237B6100234B
:102B20003B610023BB6002237B6002233B600023E8
:102B3000FB604C4B9B6803F00C03002B0BD0494B04
:102B40009B6803F00C030C2B27D1464BDB6803F08A
:102B50000303012B21D1434B1B6803F00803002B17
:102B600007D1404BD3F894301B0A03F00F037B616D
:102B700005E03C4B1B681B0903F00F037B613A4ADD
:102B80007B6952F823307B61364B9B6803F00C0362
:102B9000002B13D17B69FB6010E0324B9B6803F084
:102BA0000C03042B02D1314BFB6007E02D4B9B68DB
:102BB00003F00C03082B01D12D4BFB60294B9B68C4
:102BC00003F00C030C2B45D1264BDB6803F0030309
:102BD000BB60244BDB681B0903F0070301333B6038
:102BE000BB68022B02D0032B0DD019E01F4A3B68B3
:102BF000B2FBF3F31B4AD268120A02F07F0202FB17
:102C000003F33B6119E01A4A3B68B2FBF3F3154A40
:102C1000D268120A02F07F0202FB03F33B610CE070
:102C20007A693B68B2FBF3F30E4AD268120A02F0EB
:102C30007F0202FB03F33B6100BF0A4BDB685B0EC4
:102C400003F0030301335B007B603A697B68B2FBEE
:102C5000F3F3FB60FB6818461C37BD465DF8047B48
:102C6000704700BF00100240189D00080024F400C7
:102C700000127A0080B400AF034B1B681846BD46B3
:102C80005DF8047B704700BF0C02002080B500AFE8
:102C9000FFF7F0FF0146054B9B681B0A03F0070393
:102CA000034AD35C21FA03F3184680BD00100240AA
:102CB000109D000880B500AFFFF7DCFF0146054B13
:102CC0009B68DB0A03F00703034AD35C21FA03F392
:102CD000184680BD00100240109D000880B586B0E7
:102CE00000AF786000237B6100233B612A4B9B6D22
:102CF00003F08053002B03D0FFF7E2F9786114E072
:102D0000254A254B9B6D43F080539365224B9B6D69
:102D100003F08053FB60FB68FFF7D2F978611E4A2D
:102D20001D4B9B6D23F0805393657B69B3F5007F4A
:102D30000BD17B68802B19D97B68A02B02D9022389
:102D40003B6113E001233B6110E07B68802B02D9DB
:102D500003233B610AE07B68802B02D102233B61A5
:102D600004E07B68702B01D101233B610B490B4BC5
:102D70001B6823F007023B6913430B60074B1B687A
:102D800003F007023B699A4201D0012300E00023CF
:102D900018461837BD4680BD001002400020024092
:102DA00080B586B000AF786000237B610023FB60B4
:102DB0000023FB740023BB747B681B6803F400636F
:102DC000002B2FD07B68DB6BB3F5000F05D0B3F57C
:102DD000400F15D0002B07D00FE0AA4AA94BDB68A3
:102DE00043F48033D3600CE07B6804330021184641
:102DF00000F0C8F90346FB7403E00123FB7400E014
:102E000000BFFB7C002B0BD19E499E4BD3F8883032
:102E100023F440027B68DB6B1343C1F8883001E088
:102E2000FB7CBB747B681B6803F40033002B00F051
:102E3000948000237B74934B9B6D03F08053002B95
:102E40000DD1904A8F4B9B6D43F0805393658D4B12
:102E50009B6D03F08053BB60BB6801237B748A4A7F
:102E6000894B1B6843F480731360FDF7C1FBF86066
:102E700009E0FDF7BDFB0246FB68D31A022B02D91D
:102E80000323FB7405E0804B1B6803F48073002B65
:102E9000EFD0FB7C002B55D17A4BD3F8903003F464
:102EA00040737B617B69002B1ED07B681A6D7B6948
:102EB0009A4219D0734BD3F8903023F440737B615E
:102EC000704A704BD3F8903043F48033C2F890309E
:102ED0006C4A6C4BD3F8903023F48033C2F89030B6
:102EE000684A7B69C2F890307B6903F00103002BCC
:102EF00016D0FDF77DFBF8600BE0FDF779FB02468D
:102F0000FB68D31A41F28832934202D90323FB743F
:102F100006E05C4BD3F8903003F00203002BECD0BA
:102F2000FB7C002B0BD15749564BD3F8903023F440
:102F300040727B681B6D1343C1F8903004E0FB7C4A
:102F4000BB7401E0FB7CBB747B7C012B05D14D4A3B
:102F50004C4B9B6D23F0805393657B681B6803F09B
:102F60000103002B0AD04749464BD3F8883023F0A1
:102F700003027B681B6A1343C1F888307B681B68B7
:102F800003F00203002B0AD03E493E4BD3F88830B1
:102F900023F00C027B685B6A1343C1F888307B68BE
:102FA0001B6803F02003002B0AD03649354BD3F8B9
:102FB000883023F440627B689B6A1343C1F88830F1
:102FC0007B681B6803F40073002B0AD02D492D4B3E
:102FD000D3F8883023F440227B685B6B1343C1F83D
:102FE00088307B681B6803F48063002B0AD0254976
:102FF000244BD3F8883023F440127B689B6B134337
:10300000C1F888307B681B6803F04003002B0AD0AE
:103010001C491C4BD3F8883023F440527B68DB6A90
:103020001343C1F888307B681B6803F48073002B5E
:103030000AD01449134BD3F8883023F440327B680C
:103040001B6B1343C1F888307B681B6803F4005383
:10305000002B2DD00B490B4BD3F8883023F0406266
:103060007B681B6C1343C1F888307B681B6CB3F121
:10307000006F0BD1034A034BDB6843F48013D3602A
:1030800016E000BF00100240007000407B681B6C1F
:10309000B3F1806F0CD17B6804330121184600F036
:1030A00071F80346FB74FB7C002B01D0FB7CBB74E6
:1030B0007B681B6803F48023002B28D03049304BF9
:1030C000D3F8883023F040627B685B6C1343C1F80F
:1030D00088307B685B6CB3F1006F06D1284A284BBF
:1030E000DB6843F48013D36011E07B685B6CB3F161
:1030F000806F0CD17B6804330121184600F042F840
:103100000346FB74FB7C002B01D0FB7CBB747B680B
:103110001B6803F48043002B1CD01949184BD3F8CB
:10312000883023F040527B689B6C1343C1F8883091
:103130007B689B6CB3F1805F0CD17B680433022108
:10314000184600F01FF80346FB74FB7C002B01D0EF
:10315000FB7CBB747B681B6803F40043002B0AD024
:103160000749074BD3F8883023F080427B68DB6C3B
:103170001343C1F88830BB7C18461837BD4680BD64
:103180000010024080B584B000AF78603960002341
:10319000BB600023FB73734BDB6803F00303002B5E
:1031A00018D0704BDB6803F003027B681B689A42FF
:1031B0000DD17B681B68002B09D06A4BDB681B09AB
:1031C00003F007035A1C7B685B689A4244D00123D2
:1031D000FB7341E07B681B68022B0CD0032B13D0E0
:1031E000012B20D15F4B1B6803F00203002B1DD184
:1031F0000123FB731AE05B4B1B6803F48063002B15
:1032000016D10123FB7313E0564B1B6803F4003304
:10321000002B0FD1534B1B6803F48023002B09D1E3
:103220000123FB7306E00123FB7304E000BF02E00F
:1032300000BF00E000BFFB7B002B0DD14948494B8C
:10324000DB6823F073027B6819687B685B68013B6D
:103250001B010B431343C360FB7B002B7CD1414A12
:10326000404B1B6823F080631360FDF7C1F9B86021
:1032700009E0FDF7BDF90246BB68D31A022B02D95B
:103280000323FB7305E0374B1B6803F00063002B3F
:10329000EFD1FB7B002B5FD13B68002B10D1314875
:1032A000304B1B6923F0784323F4FE437A6892681D
:1032B00011027A68D268D2060A431343036127E0F9
:1032C0003B68012B12D12748264B1B6923F4C0030E
:1032D00023F4FE437A68926811027A6812695208F0
:1032E000013A52050A431343036111E01D481D4B87
:1032F0001B6923F0C06323F4FE437A6892681102CD
:103300007A6852695208013A52060A43134303612C
:10331000144A144B1B6843F080631360FDF768F98F
:10332000B86009E0FDF764F90246BB68D31A022BC6
:1033300002D90323FB7305E00A4B1B6803F000630B
:10334000002BEFD0FB7B002B06D10649054B1A69F9
:103350007B689B6913430B61FB7B18461037BD46A6
:1033600080BD00BF0010024080B582B000AF786021
:103370007B68002B01D101231DE07B6893F83D3071
:10338000DBB2002B06D17B68002283F83C207868F2
:1033900005F05EF87B68022283F83D207B681A689E
:1033A0007B6804331946104600F08AF97B680122D5
:1033B00083F83D20002318460837BD4680BD80B401
:1033C00083B000AF78607B681B687A681268D26847
:1033D00042F00102DA607B681B687A681268126842
:1033E00042F001021A60002318460C37BD465DF812
:1033F000047B704780B582B000AF78607B681B6843
:103400001B6903F00203022B22D17B681B68DB6877
:1034100003F00203022B1BD17B681B686FF00202D2
:103420001A617B6801221A777B681B689B6903F02D
:103430000303002B03D0786800F023F905E07868D7
:1034400000F015F9786800F026F97B6800221A77F9
:103450007B681B681B6903F00403042B22D17B6883
:103460001B68DB6803F00403042B1BD17B681B681B
:103470006FF004021A617B6802221A777B681B686E
:103480009B6903F44073002B03D0786800F0F9F8CF
:1034900005E0786800F0EBF8786800F0FCF87B68ED
:1034A00000221A777B681B681B6903F00803082B4E
:1034B00022D17B681B68DB6803F00803082B1BD153
:1034C0007B681B686FF008021A617B6804221A7718
:1034D0007B681B68DB6903F00303002B03D078686B
:1034E00000F0CFF805E0786800F0C1F8786800F0E7
:1034F000D2F87B6800221A777B681B681B6903F08F
:103500001003102B22D17B681B68DB6803F01003CB
:10351000102B1BD17B681B686FF010021A617B684F
:1035200008221A777B681B68DB6903F44073002B61
:1035300003D0786800F0A5F805E0786800F097F807
:10354000786800F0A8F87B6800221A777B681B680F
:103550001B6903F00103012B0ED17B681B68DB683C
:1035600003F00103012B07D17B681B686FF0010298
:103570001A61786804F0DCFD7B681B681B6903F046
:103580008003802B0ED17B681B68DB6803F080030F
:10359000802B07D17B681B686FF080021A61786806
:1035A00000F064FA7B681B681B6903F04003402B42
:1035B0000ED17B681B68DB6803F04003402B07D10A
:1035C0007B681B686FF040021A61786800F06DF844
:1035D0007B681B681B6903F02003202B0ED17B68DE
:1035E0001B68DB6803F02003202B07D17B681B6876
:1035F0006FF020021A61786800F02EFA00BF0837D9
:10360000BD4680BD80B582B000AF786039607B6810
:1036100093F83C30012B01D1022324E07B68012286
:1036200083F83C207B68022283F83D203968786863
:1036300000F0AEF87B681B687A681268D26822F0E6
:103640004002DA607B681B687A681268D26822F4EC
:103650008042DA607B68012283F83D207B6800228B
:1036600083F83C20002318460837BD4680BD80B44F
:1036700083B000AF786000BF0C37BD465DF8047BB7
:10368000704780B483B000AF786000BF0C37BD4690
:103690005DF8047B704780B483B000AF786000BFF2
:1036A0000C37BD465DF8047B704780B483B000AF33
:1036B000786000BF0C37BD465DF8047B70470000A2
:1036C00080B485B000AF786039600023FB607B6810
:1036D0001B68FB607B682B4A934203D07B68B3F185
:1036E000804F08D1FB6823F07003FB603B685B6888
:1036F000FA681343FB607B68224A93420BD07B68D5
:10370000B3F1804F07D07B681F4A934203D07B6898
:103710001E4A934208D1FB6823F44073FB603B6868
:10372000DB68FA681343FB60FB6823F08003FB60EF
:103730003B685B69FA681343FB607B68FA681A6050
:103740003B689A687B68DA623B681A687B689A62B1
:103750007B680C4A934207D07B680B4A934203D0A4
:103760007B680A4A934203D13B681A697B681A63F3
:103770007B6801225A6100BF1437BD465DF8047BA7
:10378000704700BF002C0140004001400044014050
:1037900080B586B000AF7860396000237B6100237C
:1037A0003B610023FB607B681B689B687B617B69D6
:1037B00023F070037B613B685B687A6913437B612C
:1037C0007B6923F4803323F007037B613B681B682C
:1037D0007A6913437B617B681B687A699A603B68EE
:1037E0005B68302B56D0302B06D8102B54D0202BB2
:1037F00054D0002B54D054E0502B37D0502B02D84B
:10380000402B10D04DE0602B3AD0702B00D048E018
:103810007B6818683B68D9683B689A683B681B6995
:1038200000F0AAF83DE07B681B681B6AFB607B68C0
:103830001B687A681268126A22F001021A627B68B9
:103840001B689B693B613B6923F0F0033B613B686C
:103850001B691B013A6913433B617B681B683A692A
:103860009A617B681B68FA681A621AE07B681868BC
:103870003B6899683B681B691A4600F016F810E02F
:103880007B6818683B6899683B681B691A4600F0BA
:103890003FF806E000BF04E000BF02E000BF00E028
:1038A00000BF00BF1837BD4680BD80B487B000AFF1
:1038B000F860B9607A6000237B6100233B61FB689C
:1038C0001B6A3B61FB681B6A23F00102FB681A62FA
:1038D000FB689B697B617B6923F0F0037B617B68FC
:1038E0001B017A6913437B613B6923F00A033B6147
:1038F0003A69BB6813433B61FB687A699A61FB686C
:103900003A691A6200BF1C37BD465DF8047B7047F8
:1039100080B487B000AFF860B9607A6000237B6143
:1039200000233B61FB681B6A23F01002FB681A62EC
:10393000FB689B697B61FB681B6A3B617B6923F4C5
:1039400070437B617B681B037A6913437B613B692E
:1039500023F0A0033B61BB681B013A6913433B6141
:10396000FB687A699A61FB683A691A6200BF1C3782
:10397000BD465DF8047B704780B487B000AFF86047
:10398000B9607A603B6000237B61FB689B687B6168
:103990007B6923F47F437B613B681A027B681A438F
:1039A000BB6813437A6913437B61FB687A699A6049
:1039B00000BF1C37BD465DF8047B704780B485B0FE
:1039C00000AF786039607B6893F83C30012B01D1FF
:1039D000022338E07B68012283F83C207B681B6867
:1039E0005B68FB607B681B689B68BB607B681B68CF
:1039F000184A934208D1FB6823F47003FB603B68CC
:103A00005B68FA681343FB60FB6823F07003FB609C
:103A10003B681B68FA681343FB60BB6823F08003B4
:103A2000BB603B689B68BA681343BB607B681B68DC
:103A3000FA685A607B681B68BA689A607B680022E3
:103A400083F83C20002318461437BD465DF8047BFC
:103A5000704700BF002C014080B483B000AF786095
:103A600000BF0C37BD465DF8047B704780B483B05F
:103A700000AF786000BF0C37BD465DF8047B70472F
:103A800080B582B000AF78607B68002B01D1012344
:103A900043E07B6893F87130DBB2002B06D17B6882
:103AA000002283F87020786804F0F8FC7B682422F8
:103AB00083F871207B681B687A681268126822F0AC
:103AC00001021A60786800F0D3FB0346012B01D194
:103AD000012322E07B685B6A002B02D0786800F04B
:103AE00089FE7B681B687A681268526822F49042EB
:103AF0005A607B681B687A681268926822F02A0212
:103B00009A607B681B687A681268126842F001024A
:103B10001A60786800F010FF034618460837BD4663
:103B200080BD80B588B002AFF860B9603B601346D5
:103B3000FB8000237B61FB6893F87130DBB2202BA4
:103B400077D1BB68002B02D0FB88002B01D1012369
:103B500070E0FB6893F87030012B01D1022369E01B
:103B6000FB68012283F87020FB6800225A67FB681B
:103B7000212283F87120FCF73BFD7861FB68FA880D
:103B8000A3F85020FB68FA88A3F8522034E03B6881
:103B900000937B6900228021F86800F016FF03463D
:103BA000002B01D0032345E0FB689B68B3F5805FE1
:103BB00011D1FB681B69002B0DD1BB683B61FB6811
:103BC0001B683A691288C2F3080292B21A85BB6870
:103BD0000233BB6007E0FB681A68BB68591CB96018
:103BE0001B789BB21385FB68B3F852309BB2013B44
:103BF0009AB2FB68A3F85220FB68B3F852309BB22C
:103C0000002BC4D13B6800937B6900224021F868F7
:103C100000F0DBFE0346002B01D003230AE0FB6823
:103C2000202283F87120FB68002283F87020002393
:103C300000E0022318461837BD4680BD80B58AB023
:103C400002AFF860B9603B601346FB800023FB6164
:103C5000FB6893F87230DBB2202B40F0AD80BB687C
:103C6000002B02D0FB88002B01D10123A5E0FB68CB
:103C700093F87030012B01D102239EE0FB680122F2
:103C800083F87020FB6800225A67FB68222283F8C1
:103C90007220FCF7ADFCF861FB68FA88A3F85820A5
:103CA000FB68FA88A3F85A20FB689B68B3F5805F2D
:103CB0000ED1FB681B69002B05D1FB6840F2FF1297
:103CC000A3F85C2028E0FB68FF22A3F85C2023E037
:103CD000FB689B68002B0DD1FB681B69002B04D18E
:103CE000FB68FF22A3F85C2016E0FB687F22A3F8A4
:103CF0005C2011E0FB689B68B3F1805F0CD1FB682E
:103D00001B69002B04D1FB687F22A3F85C2003E031
:103D1000FB683F22A3F85C20FB68B3F85C307B8330
:103D20003AE03B680093FB6900222021F86800F02C
:103D30004CFE0346002B01D003233EE0FB689B684A
:103D4000B3F5805F12D1FB681B69002B0ED1BB68F5
:103D50007B61FB681B689B8C9AB27B8B13409AB289
:103D60007B691A80BB680233BB600CE0BB685A1CDD
:103D7000BA60FA681268928C92B2D1B27A8BD2B2DF
:103D80000A40D2B21A70FB68B3F85A309BB2013BBA
:103D90009AB2FB68A3F85A20FB68B3F85A309BB27A
:103DA000002BBED1FB68202283F87220FB68002222
:103DB00083F87020002300E0022318462037BD4618
:103DC00080BD000080B485B000AFF860B9601346D4
:103DD000FB80FB6893F87230DBB2202B40F08680CA
:103DE000BB68002B02D0FB88002B01D101237EE0B1
:103DF000FB6893F87030012B01D1022377E0FB6858
:103E0000012283F87020FB68BA685A65FB68FA885B
:103E1000A3F85820FB68FA88A3F85A20FB68002210
:103E20001A66FB689B68B3F5805F0ED1FB681B695F
:103E3000002B05D1FB6840F2FF12A3F85C2028E0BC
:103E4000FB68FF22A3F85C2023E0FB689B68002B43
:103E50000DD1FB681B69002B04D1FB68FF22A3F87E
:103E60005C2016E0FB687F22A3F85C2011E0FB6871
:103E70009B68B3F1805F0CD1FB681B69002B04D1F8
:103E8000FB687F22A3F85C2003E0FB683F22A3F8D5
:103E90005C20FB6800225A67FB68222283F87220AC
:103EA000FB681B68FA681268926842F001029A6027
:103EB000FB689B68B3F5805F07D1FB681B69002B2B
:103EC00003D1FB680D4A1A6602E0FB680C4A1A66C9
:103ED000FB68002283F87020FB681B68FA68126890
:103EE000126842F490721A60002300E00223184620
:103EF0001437BD465DF8047B704700BFBB4C00081B
:103F0000154C000880B584B000AFF860B960134666
:103F1000FB80FB6893F87130DBB2202B52D1BB6879
:103F2000002B02D0FB88002B01D101234BE0FB6862
:103F300093F87030012B01D1022344E0FB68012289
:103F400083F87020FB68BA68DA64FB68FA88A3F823
:103F50005020FB68FA88A3F85220FB6800225A67B9
:103F6000FB68212283F87120FB689B6E184ADA6295
:103F7000FB689B6E174A1A63FB689B6E164A5A636E
:103F8000FB689B6E00229A63FB68986EFB68DB6C93
:103F90001946FB681B6828331A46FB88FCF746FD68
:103FA000FB681B6840221A62FB68002283F87020BD
:103FB000FB681B68FA681268926842F080029A6097
:103FC000002300E0022318461037BD4680BD00BF25
:103FD000CD4A0008214B00083D4B000880B586B053
:103FE00000AF78607B681B68DB697B617B681B685E
:103FF0001B683B617B681B689B68FB607B6903F007
:104000000F03BB60BB68002B13D17B6903F0200357
:10401000002B0ED03B6903F02003002B09D07B68F6
:104020001B6E002B00F005817B681B6E786898473B
:10403000FFE0BB68002B00F0BF80FB6803F00103CA
:10404000002B05D13B6903F49073002B00F0B48082
:104050007B6903F00103002B0ED03B6903F48073EE
:10406000002B09D07B681B6801221A627B685B6F9A
:1040700043F001027B685A677B6903F00203002B5F
:104080000ED0FB6803F00103002B09D07B681B688E
:1040900002221A627B685B6F43F004027B685A67F6
:1040A0007B6903F00403002B0ED0FB6803F00103CF
:1040B000002B09D07B681B6804221A627B685B6F47
:1040C00043F002027B685A677B6903F00803002B08
:1040D00013D03B6903F02003002B04D1FB6803F0ED
:1040E0000103002B09D07B681B6808221A627B68D9
:1040F0005B6F43F008027B685A677B685B6F002B3D
:1041000000F099807B6903F02003002B0CD03B6901
:1041100003F02003002B07D07B681B6E002B03D01D
:104120007B681B6E786898477B685B6F03F00803B9
:10413000002B06D17B681B689B6803F04003402B73
:1041400031D1786800F0A1FC7B681B689B6803F0A4
:104150004003402B23D17B681B687A681268926801
:1041600022F040029A607B68DB6E002B13D07B68E4
:10417000DB6E344A9A637B68DB6E1846FCF7B6FC4C
:104180000346002B16D07B68DB6E9B6B7A68D26E81
:10419000104698470EE0786800F060F80AE078680A
:1041A00000F05CF806E0786800F058F87B680022C0
:1041B0005A6740E000BF3EE07B6903F48013002BA8
:1041C00015D0FB6803F48003002B10D07B681B68BC
:1041D0004FF480121A627B68202283F871207B687A
:1041E000202283F87220786800F0BCFD26E07B690D
:1041F00003F08003002B0DD03B6903F08003002BFC
:1042000008D07B685B6E002B17D07B685B6E78688C
:10421000984712E07B6903F04003002B0ED03B6906
:1042200003F04003002B09D0786800F0D9FC00BFF0
:1042300004E000BF02E000BF00E000BF1837BD4649
:1042400080BD00BFB54B000880B483B000AF78607C
:1042500000BF0C37BD465DF8047B704780B483B067
:1042600000AF786000BF0C37BD465DF8047B704737
:104270002DE9B04388B000AF78600023FB611023C4
:10428000FB7600237B8100237B610023FB740023EA
:10429000FB607B689A687B681B691A437B685B6973
:1042A0001A437B68DB691343FB617B681A687B6890
:1042B0001B681968B44B0B40F9690B4313607B68AA
:1042C0001B687A681268526822F440517A68D26892
:1042D0000A435A607B689B69FB617B681B68AB4A39
:1042E000934204D07B681B6AFA691343FB617B68C5
:1042F0001B687A681268926822F43061FA690A438E
:104300009A607B681B68A24A934221D1A14BD3F8E3
:10431000883003F00303032B16D801A252F823F0D0
:10432000314300083D430008374300084343000879
:104330000123FB766EE00223FB766BE00423FB7621
:1043400068E00823FB7665E01023FB7600BF61E0A0
:104350007B681B68904A934234D18E4BD3F88830E7
:1043600003F00C030C2B29D801A252F823F000BF54
:10437000A5430008BD430008BD430008BD43000835
:10438000B1430008BD430008BD430008BD43000819
:10439000AB430008BD430008BD430008BD4300080F
:1043A000B74300080023FB7634E00223FB7631E0BC
:1043B0000423FB762EE00823FB762BE01023FB760C
:1043C00000BF27E07B681B68704A934223D1714B82
:1043D000D3F8883003F44063B3F5806F12D0B3F59F
:1043E000806F02D8002B07D012E0B3F5006F06D023
:1043F000B3F5406F09D00BE00023FB760AE00223FF
:10440000FB7607E00423FB7604E00823FB7601E05B
:104410001023FB7600BF7B681B685C4A934240F028
:10442000E980FB7E082B24D801A252F823F000BFBC
:1044300055440008734400085D44000873440008B4
:104440006344000873440008734400087344000880
:104450006B440008FEF71AFCF8600DE04F4BFB6060
:104460000AE0FEF757FBF86006E04FF40043FB60FC
:1044700002E00123FB7400BFFB68002B00F0AD815C
:104480007B685A6813465B001A44FB689A4205D859
:104490007B685B681A03FB689A4202D20123FB74B3
:1044A0009BE1FB7E082B00F2928001A252F823F0E0
:1044B000D5440008CF45000815450008CF45000841
:1044C00049450008CF450008CF450008CF45000802
:1044D000A5450008FEF7DAFB03464FF000044FEA5B
:1044E000042949EA13694FEA03287B685B685B0883
:1044F0004FF0000418EB030049EB04017B685B6894
:104500004FF000041A462346FBF7BAFE03460C465A
:104510007B615FE07B685B685B084FF000042049CB
:104520004FF0000213EB010844EB020940464946F4
:104530007B685B684FF000041A462346FBF7A0FE39
:1045400003460C467B6145E0FEF7E4FA03461A4653
:104550004FF000031D0245EA126514027B685B6898
:104560005B081A464FF00003A01845EB03017B6877
:104570005B684FF000041A462346FBF781FE0346B2
:104580000C467B6126E000BFF369FFEF008000402E
:104590000038014000100240004400400024F400B4
:1045A000000024F47B685B685B084FF0000413F59F
:1045B000000044F100017B685B684FF000041A467C
:1045C0002346FBF75DFE03460C467B6102E00123B8
:1045D000FB7400BF7B69B3F5407F08D37B69B3F5FB
:1045E000801F04D27B681B687A69DA60F5E00123DA
:1045F000FB74F2E07B68DB69B3F5004F7FD1FB7E93
:10460000082B5CD801A252F823F000BF3146000805
:104610004F4600086D460008BF460008894600085E
:10462000BF460008BF460008BF460008A74600086E
:10463000FEF72CFB03465A007B685B685B081A4454
:104640007B685B68B2FBF3F39BB27B613AE0FEF7F9
:1046500031FB03465A007B685B685B081A447B6841
:104660005B68B2FBF3F39BB27B612BE07B685B681A
:104670005B0803F1F47303F590437A685268B3FB67
:10468000F2F39BB27B611DE0FEF744FA03465A0049
:104690007B685B685B081A447B685B68B2FBF3F37A
:1046A0009BB27B610EE07B685B685B0803F5803240
:1046B0007B685B68B2FBF3F39BB27B6102E0012392
:1046C000FB7400BF7B690F2B16D97B69B3F5803F64
:1046D00012D27B699BB223F00F037B817B695B085D
:1046E0009BB203F007039AB27B8913437B817B68FB
:1046F0001B687A89DA6070E00123FB746DE0FB7E51
:10470000082B59D801A252F823F000BF3147000806
:104710004D47000869470008B94700088547000869
:10472000B9470008B9470008B9470008A147000881
:10473000FEF7ACFA02467B685B685B081A447B684C
:104740005B68B2FBF3F39BB27B6138E0FEF7B2FA31
:1047500002467B685B685B081A447B685B68B2FB57
:10476000F3F39BB27B612AE07B685B685B0803F52F
:10477000740303F510537A685268B3FBF2F39BB2EB
:104780007B611CE0FEF7C6F902467B685B685B084C
:104790001A447B685B68B2FBF3F39BB27B610EE06B
:1047A0007B685B685B0803F500427B685B68B2FB73
:1047B000F3F39BB27B6102E00123FB7400BF7B69D2
:1047C0000F2B08D97B69B3F5803F04D27B681B6847
:1047D0007A69DA6001E00123FB747B6800221A66C3
:1047E0007B6800225A66FB7C18462037BD46BDE830
:1047F000B08300BF80B483B000AF78607B685B6A31
:1048000003F00103002B0AD07B681B687A681268EA
:10481000526822F400317A68926A0A435A607B68CF
:104820005B6A03F00203002B0AD07B681B687A687E
:104830001268526822F480317A68D26A0A435A6058
:104840007B685B6A03F00403002B0AD07B681B685B
:104850007A681268526822F480217A68126B0A43DF
:104860005A607B685B6A03F00803002B0AD07B6800
:104870001B687A681268526822F400417A68526BA9
:104880000A435A607B685B6A03F01003002B0AD06E
:104890007B681B687A681268926822F480517A6893
:1048A000926B0A439A607B685B6A03F02003002BDB
:1048B0000AD07B681B687A681268926822F40051FB
:1048C0007A68D26B0A439A607B685B6A03F04003A4
:1048D000002B1AD07B681B687A681268526822F431
:1048E00080117A68126C0A435A607B681B6CB3F5BE
:1048F000801F0AD17B681B687A681268526822F4AC
:10490000C0017A68526C0A435A607B685B6A03F0A4
:104910008003002B0AD07B681B687A681268526893
:1049200022F400217A68926C0A435A6000BF0C3767
:10493000BD465DF8047B704780B586B002AF7860F5
:104940000023FB607B6800225A67FBF751FEF8608A
:104950007B681B681B6803F00803082B0ED16FF0FF
:104960007E430093FB6800224FF40011786800F04A
:104970002CF80346002B01D0032322E07B681B6840
:104980001B6803F00403042B0ED16FF07E430093E9
:10499000FB6800224FF48001786800F016F80346A7
:1049A000002B01D003230CE07B68202283F87120C8
:1049B0007B68202283F872207B68002283F87020B5
:1049C000002318461037BD4680BD80B584B000AFC7
:1049D000F860B9603B601346FB712CE0BB69B3F132
:1049E000FF3F28D0BB69002B07D0FBF701FE024632
:1049F0003B68D21ABB699A421DD9FB681B68FA68EA
:104A00001268126822F4D0721A60FB681B68FA6898
:104A10001268926822F001029A60FB68202283F8F3
:104A20007120FB68202283F87220FB68002283F843
:104A3000702003230FE0FB681B68DA69BB681A402B
:104A4000BB689A420CBF01230023DBB21A46FB79F4
:104A50009A42C3D0002318461037BD4680BD80B4AB
:104A600083B000AF78607B681B687A681268126850
:104A700022F0C0021A607B68202283F8712000BFF8
:104A80000C37BD465DF8047B704780B483B000AF3F
:104A900078607B681B687A681268126822F49072EA
:104AA0001A607B681B687A681268926822F00102BB
:104AB0009A607B68202283F872207B6800221A6645
:104AC00000BF0C37BD465DF8047B704780B584B0ED
:104AD00000AF78607B689B6AFB607B681B681B6823
:104AE00003F02003002B14D1FB680022A3F852200E
:104AF000FB681B68FA681268926822F080029A606C
:104B0000FB681B68FA681268126842F040021A607B
:104B100002E0F86803F0C0FE00BF1037BD4680BD5C
:104B200080B584B000AF78607B689B6AFB60F868F2
:104B3000FFF78AFB00BF1037BD4680BD80B584B04B
:104B400000AF78607B689B6AFB60FB6893F871300C
:104B5000DBB2212B0DD1FB681B689B6803F080033F
:104B6000802B06D1FB680022A3F85220F868FFF7DB
:104B700076FFFB6893F87230DBB2222B0DD1FB6815
:104B80001B689B6803F04003402B06D1FB680022A2
:104B9000A3F85A20F868FFF778FFFB685B6F43F0D3
:104BA0001002FB685A67F868FFF758FB00BF103720
:104BB000BD4680BD80B584B000AF78607B689B6ADD
:104BC000FB60FB680022A3F85A20FB680022A3F8D0
:104BD0005220F868FFF742FB00BF1037BD4680BD8A
:104BE00080B582B000AF78607B681B687A68126815
:104BF000126822F040021A607B68202283F871203C
:104C00007B6800225A66786803F046FE00BF0837CA
:104C1000BD4680BD80B584B000AF78607B68B3F8D6
:104C20005C30FB817B6893F87230DBB2222B36D18B
:104C30007B681B689B8CBB817B685B6D591C7A68A9
:104C40005165BA89D1B2FA89D2B20A40D2B21A7089
:104C50007B68B3F85A309BB2013B9BB27A68194625
:104C6000A2F85A10002B24D17B681B687A6812685E
:104C7000126822F490721A607B681B687A68126866
:104C8000926822F001029A607B68202283F87220E9
:104C90007B6800221A66786803F028FA09E07B68CE
:104CA0001B687A681268128B92B242F0080292B2C4
:104CB0001A8300BF1037BD4680BD80B584B000AFF9
:104CC00078607B68B3F85C30FB817B6893F8723066
:104CD000DBB2222B38D17B681B689B8CBB817B6845
:104CE0005B6DBB60BA89FB8913409AB2BB681A80BE
:104CF0007B685B6D9A1C7B685A657B68B3F85A3099
:104D00009BB2013B9BB27A681946A2F85A10002B5D
:104D100024D17B681B687A681268126822F490724A
:104D20001A607B681B687A681268926822F0010238
:104D30009A607B68202283F872207B6800221A66C2
:104D4000786803F0D3F909E07B681B687A68126819
:104D5000128B92B242F0080292B21A8300BF10374F
:104D6000BD4680BD80B483B000AF786000BF0C3713
:104D7000BD465DF8047B704784B080B483B000AF5B
:104D8000786007F1140080E80E00002318460C3705
:104D9000BD465DF8047B04B0704780B485B000AFB9
:104DA00078600023FB604FF43D43FB607B68B3F801
:104DB00040309AB2FB689BB213439AB27B68A3F867
:104DC0004020002318461437BD465DF8047B704729
:104DD00080B485B000AF78600023FB604FF43D43A2
:104DE000FB607B68B3F840309AB2FB689BB2DB4350
:104DF0009BB213409AB27B68A3F840200023184668
:104E00001437BD465DF8047B704780B483B000AFB3
:104E100078600B46FB70002318460C37BD465DF8E2
:104E2000047B704784B080B483B000AF786007F132
:104E3000140080E80E007B680122A3F840207B6804
:104E40000022A3F840207B680022A3F844207B685E
:104E50000022A3F85020002318460C37BD465DF809
:104E6000047B04B07047000090B484B000AF786059
:104E700039603B68DB78032B65D801A252F823F038
:104E8000914E0008174F0008C14E0008E74E000879
:104E90007B683A68127892001A447B68396809780E
:104EA00089000B441B889BB21BB223F4EC4323F014
:104EB00070031BB243F400731BB29BB2138043E038
:104EC0007B683A68127892001A447B6839680978DE
:104ED00089000B441B889BB223F4EC4323F070033E
:104EE0009BB2138030E07B683A68127892001A44D3
:104EF0007B683968097889000B441B889BB21BB218
:104F000023F4EC4323F070031BB243F4C0631BB2E1
:104F10009BB2138018E07B683A68127892001A44BA
:104F20007B683968097889000B441B889BB21BB2E7
:104F300023F4EC4323F070031BB243F480631BB2F1
:104F40009BB2138000E000BF7B683A681278920041
:104F50001A447B683968097889000B441B889BB226
:104F600019B240F60F730B4019B2794B0B4319B2CB
:104F70003B681B781BB20B431BB29BB213803B6890
:104F80009B7A002B40F0EA803B685B78002B4FD087
:104F90007B68B3F850309BB21A463B681B78DB0045
:104FA00013441A467B68134403F580631A463B6832
:104FB0009B885B089BB25B009BB213807B683A685E
:104FC0001278920013441B889BB203F04003002B1D
:104FD00015D07B683A68127892001A447B68396869
:104FE000097889000B441B889BB219B240F60F73F5
:104FF0000B4019B2574B0B431BB29BB213807B681B
:105000003A681278920013441B889BB223F4E04361
:1050100023F040039CB284F020039CB27B683A6882
:10502000127892001A444A4B23439BB21380F1E159
:105030007B68B3F850309BB21A463B681B78DB00A4
:1050400013441A467B68134403F204431A463B6830
:105050009B885B089BB25B009BB213807B68B3F8B4
:1050600050309BB21A463B681B78DB0013441A464B
:105070007B68134403F20643BB603B681B693E2B0D
:1050800017D93B681B695B09FB813B681B6903F00F
:105090001F03002B02D1FB89013BFB81FB899B0293
:1050A0009BB26FEA43436FEA53439AB2BB681A80DC
:1050B00011E03B681B695B08FB813B681B6903F0DF
:1050C0000103002B02D0FB890133FB81FB899B028A
:1050D0009AB2BB681A807B683A68127892001344CF
:1050E0001B889BB203F48043002B15D07B683A6881
:1050F000127892001A447B683968097889000B4459
:105100001B889BB219B240F60F730B4019B2124BB9
:105110000B431BB29BB213807B683A6812789200F3
:1051200013441B889BB223F4804323F070039CB28A
:1051300084F480539CB284F400539CB27B683A6838
:10514000127892001A44024B23439BB2138061E110
:105150008080FFFFC080FFFF80C0FFFF7B683A6850
:10516000127892001A447B683968097889000B44E8
:105170001B889BB243F480739BB219B240F60F7345
:105180000B4019B25F4B0B431BB29BB213807B6881
:10519000B3F850309BB21A463B681B78DB001344CF
:1051A0001A467B68134403F580631A463B68DB8824
:1051B0005B089BB25B009BB213807B68B3F85030F6
:1051C0009BB21A463B681B78DB0013441A467B6887
:1051D000134403F204431A463B681B895B089BB2E5
:1051E0005B009BB213803B685B78002B40F09080A3
:1051F0007B683A681278920013441B889BB203F4D0
:105200008043002B15D07B683A68127892001A44CC
:105210007B683968097889000B441B889BB219B2F6
:1052200040F60F730B4019B2374B0B431BB29BB2C6
:1052300013807B683A681278920013441B889BB2F3
:1052400003F04003002B15D07B683A681278920077
:105250001A447B683968097889000B441B889BB223
:1052600019B240F60F730B4019B2284B0B431BB217
:105270009BB213807B683A68127892001A447B686C
:105280003968097889000B441B889BB219B240F633
:105290000F730B4019B21D4B0B431BB29BB2138013
:1052A0007B683A681278920013441B889BB223F4FF
:1052B000804323F070039CB284F480539CB284F446
:1052C00000539CB27B683A68127892001A440D4BE6
:1052D00023439BB213807B683A6812789200134490
:1052E0001B889BB223F4E04323F040039CB27B680D
:1052F0003A68127892001A44024B23439BB21380FF
:1053000088E000BF8080FFFF80C0FFFFC080FFFFFC
:105310007B683A681278920013441B889BB203F4AE
:105320008043002B15D07B683A68127892001A44AB
:105330007B683968097889000B441B889BB219B2D5
:1053400040F60F730B4019B2354B0B431BB29BB2A7
:1053500013807B683A681278920013441B889BB2D2
:1053600003F04003002B15D07B683A681278920056
:105370001A447B683968097889000B441B889BB202
:1053800019B240F60F730B4019B2264B0B431BB2F8
:105390009BB213807B683A68127892001A447B684B
:1053A0003968097889000B441B889BB219B240F612
:1053B0000F730B4019B21A4B0B431BB29BB21380F5
:1053C0007B683A681278920013441B889BB223F4DE
:1053D000E04323F040039CB27B683A681278920065
:1053E0001A44114B23439BB213807B683A681278AE
:1053F000920013441B889BB223F4804323F0700374
:105400009CB27B683A68127892001A44064B234398
:105410009BB21380002318461037BD4690BC7047DE
:1054200080C0FFFFC080FFFF8080FFFF90B482B08C
:1054300000AF786039603B689B7A002B71D13B6884
:105440005B78002B36D07B683A6812789200134460
:105450001B889BB203F04003002B15D07B683A6891
:10546000127892001A447B683968097889000B44E5
:105470001B889BB219B240F60F730B4019B26D4BEB
:105480000B431BB29BB213807B683A681278920080
:1054900013441B889BB223F4E04323F040039CB2E7
:1054A0007B683A68127892001A44634B23439BB29C
:1054B000138047E17B683A681278920013441B8896
:1054C0009BB203F48043002B15D07B683A681278B6
:1054D00092001A447B683968097889000B441B885C
:1054E0009BB219B240F60F730B4019B2534B0B43EA
:1054F0001BB29BB213807B683A6812789200134407
:105500001B889BB223F4804323F070039CB27B681A
:105510003A68127892001A44474B23439BB2138097
:1055200010E13B685B78002B40F08A807B683A682A
:105530001278920013441B889BB203F48043002B23
:1055400015D07B683A68127892001A447B683968F3
:10555000097889000B441B889BB219B240F60F737F
:105560000B4019B2354B0B431BB29BB213807B68C7
:105570003A681278920013441B889BB203F04003F0
:10558000002B15D07B683A68127892001A447B6829
:105590003968097889000B441B889BB219B240F620
:1055A0000F730B4019B2234B0B431BB29BB21380FA
:1055B0007B683A68127892001A447B6839680978E7
:1055C00089000B441B889BB219B240F60F730B4045
:1055D00019B2184B0B431BB29BB213807B683A681D
:1055E0001278920013441B889BB223F4804323F06B
:1055F00070039CB27B683A68127892001A440E4B92
:1056000023439BB213807B683A681278920013445C
:105610001B889BB223F4E04323F040039CB27B68D9
:105620003A68127892001A44034B23439BB21380CA
:1056300088E000BFC080FFFF8080FFFF80C0FFFFC9
:105640007B683A681278920013441B889BB203F47B
:105650008043002B15D07B683A68127892001A4478
:105660007B683968097889000B441B889BB219B2A2
:1056700040F60F730B4019B2354B0B431BB29BB274
:1056800013807B683A681278920013441B889BB29F
:1056900003F04003002B15D07B683A681278920023
:1056A0001A447B683968097889000B441B889BB2CF
:1056B00019B240F60F730B4019B2264B0B431BB2C5
:1056C0009BB213807B683A68127892001A447B6818
:1056D0003968097889000B441B889BB219B240F6DF
:1056E0000F730B4019B21A4B0B431BB29BB21380C2
:1056F0007B683A681278920013441B889BB223F4AB
:10570000E04323F040039CB27B683A681278920031
:105710001A44114B23439BB213807B683A6812787A
:10572000920013441B889BB223F4804323F0700340
:105730009CB27B683A68127892001A44064B234365
:105740009BB21380002318460837BD4690BC7047B3
:1057500080C0FFFFC080FFFF8080FFFF90B58DB04D
:1057600000AFF860B9601346FB710023FB85BB688E
:105770009B69BB62BB685B78012B40F04481BB68CE
:105780009A69BB681B699A4209D9BB681B69BB62ED
:10579000BB689A69BB6AD21ABB689A6105E0BB68AC
:1057A0009B69BB62BB6800229A61BB689B7A002B35
:1057B0001AD1BB685969BB689A88BB6A9BB2F86802
:1057C00000F040FBFB68B3F850309BB21A46BB6850
:1057D0001B78DB0013441A46FB68134403F20243B0
:1057E000BA6A92B21A80F2E0FB68BA681278920044
:1057F00013441B889BB203F04003002B55D0BB68B9
:105800005B78002B38D1FB68B3F850309BB21A4656
:10581000BB681B78DB0013441A46FB68134403F291
:105820000643FB61BB6A3E2B15D9BB6A5B09FB844F
:10583000BB6A03F01F03002B02D1FB8C013BFB84EE
:10584000FB8C9B029BB26FEA43436FEA53439AB2CD
:10585000FB691A8025E0BB6A5B08FB84BB6A03F026
:105860000103002B02D0FB8C0133FB84FB8C9B02D9
:105870009AB2FB691A8014E0BB685B78012B10D1E7
:10588000FB68B3F850309BB21A46BB681B78DB004C
:1058900013441A46FB68134403F20243BA6A92B2F5
:1058A0001A80BB681B89FB8554E0BB685B78002BC2
:1058B00038D1FB68B3F850309BB21A46BB681B78EE
:1058C000DB0013441A46FB68134403F20243BB6136
:1058D000BB6A3E2B15D9BB6A5B09BB84BB6A03F06C
:1058E0001F03002B02D1BB8C013BBB84BB8C9B02F2
:1058F0009BB26FEA43436FEA53439AB2BB691A8083
:1059000025E0BB6A5B08BB84BB6A03F00103002B84
:1059100002D0BB8C0133BB84BB8C9B029AB2BB69A7
:105920001A8014E0BB685B78012B10D1FB68B3F8D8
:1059300050309BB21A46BB681B78DB0013441A46F2
:10594000FB68134403F20243BA6A92B21A80BB683E
:10595000DB88FB85BB685969BB6A9BB2FA8DF86826
:1059600000F070FABB685B78002B16D1FB68BA6850
:10597000127892001A44FB68B968097889000B44D0
:105980001B889BB219B240F60F730B4019B2804BC3
:105990000B431BB29BB2138019E0BB685B78012BF1
:1059A00015D1FB68BA68127892001A44FB68B9688E
:1059B000097889000B441B889BB219B240F60F731B
:1059C0000B4019B2734B0B431BB29BB21380FB68A5
:1059D000BA681278920013441B889BB223F4E04308
:1059E00023F040039CB284F010039CB284F02003A7
:1059F0009CB2FB68BA68127892001A44664B234343
:105A00009BB21380BFE0BB689A69BB681B699A426E
:105A100009D9BB681B69BB62BB689A69BB6AD21AA9
:105A2000BB689A6105E0BB689B69BB62BB680022EA
:105A30009A61BB689B7A002B38D1FB68B3F8503071
:105A40009BB21A46BB681B78DB0013441A46FB68FE
:105A5000134403F206437B61BB6A3E2B15D9BB6A34
:105A60005B097B84BB6A03F01F03002B02D17B8C94
:105A7000013B7B847B8C9B029BB26FEA43436FEAC2
:105A800053439AB27B691A8062E0BB6A5B087B84ED
:105A9000BB6A03F00103002B02D07B8C01337B84B3
:105AA0007B8C9B029AB27B691A8051E0BB685B7861
:105AB000002B38D1FB68B3F850309BB21A46BB6854
:105AC0001B78DB0013441A46FB68134403F20643B9
:105AD0003B61BB6A3E2B15D9BB6A5B093B84BB6A41
